{
  "contractName": "TaskContract",
  "abi": [
    {
      "anonymous": false,
      "inputs": [
        {
          "indexed": true,
          "internalType": "address",
          "name": "recipient",
          "type": "address"
        },
        {
          "indexed": true,
          "internalType": "uint256",
          "name": "taskId",
          "type": "uint256"
        }
      ],
      "name": "AddTask",
      "type": "event"
    },
    {
      "anonymous": false,
      "inputs": [
        {
          "indexed": true,
          "internalType": "uint256",
          "name": "taskId",
          "type": "uint256"
        },
        {
          "indexed": false,
          "internalType": "string",
          "name": "newText",
          "type": "string"
        },
        {
          "indexed": false,
          "internalType": "uint256",
          "name": "timestamp",
          "type": "uint256"
        }
      ],
      "name": "ChangeTask",
      "type": "event"
    },
    {
      "anonymous": false,
      "inputs": [
        {
          "indexed": true,
          "internalType": "uint256",
          "name": "taskId",
          "type": "uint256"
        },
        {
          "indexed": false,
          "internalType": "bool",
          "name": "isDeleted",
          "type": "bool"
        }
      ],
      "name": "DeleteTask",
      "type": "event"
    },
    {
      "anonymous": false,
      "inputs": [
        {
          "indexed": true,
          "internalType": "uint256",
          "name": "taskId",
          "type": "uint256"
        }
      ],
      "name": "GetTask",
      "type": "event"
    },
    {
      "inputs": [
        {
          "internalType": "string",
          "name": "text",
          "type": "string"
        }
      ],
      "name": "addTask",
      "outputs": [],
      "stateMutability": "nonpayable",
      "type": "function"
    },
    {
      "inputs": [],
      "name": "getTasks",
      "outputs": [
        {
          "components": [
            {
              "internalType": "uint256",
              "name": "id",
              "type": "uint256"
            },
            {
              "internalType": "string",
              "name": "text",
              "type": "string"
            },
            {
              "internalType": "bool",
              "name": "isDeleted",
              "type": "bool"
            },
            {
              "internalType": "uint256",
              "name": "timestamp",
              "type": "uint256"
            }
          ],
          "internalType": "struct TaskContract.Task[]",
          "name": "",
          "type": "tuple[]"
        }
      ],
      "stateMutability": "view",
      "type": "function",
      "constant": true
    },
    {
      "inputs": [
        {
          "internalType": "uint256",
          "name": "taskId",
          "type": "uint256"
        }
      ],
      "name": "deleteTask",
      "outputs": [],
      "stateMutability": "nonpayable",
      "type": "function"
    },
    {
      "inputs": [
        {
          "internalType": "uint256",
          "name": "taskId",
          "type": "uint256"
        },
        {
          "internalType": "string",
          "name": "newText",
          "type": "string"
        }
      ],
      "name": "changeTask",
      "outputs": [],
      "stateMutability": "nonpayable",
      "type": "function"
    }
  ],
  "bytecode": "0x608060405234801561001057600080fd5b506111f2806100206000396000f3fe608060405234801561001057600080fd5b506004361061004c5760003560e01c806304a87e3814610051578063050f82fc1461006f578063560f31921461008b57806367238562146100a7575b600080fd5b6100596100c3565b6040516100669190610a1e565b60405180910390f35b61008960048036038101906100849190610bb5565b6103e2565b005b6100a560048036038101906100a09190610c11565b610565565b005b6100c160048036038101906100bc9190610c3e565b6106c7565b005b60606000805b60008054905081101561019b573373ffffffffffffffffffffffffffffffffffffffff166001600083815260200190815260200160002060009054906101000a900473ffffffffffffffffffffffffffffffffffffffff1673ffffffffffffffffffffffffffffffffffffffff1614801561017457506000818154811061015357610152610c87565b5b906000526020600020906004020160020160009054906101000a900460ff16155b1561018857818061018490610ce5565b9250505b808061019390610ce5565b9150506100c9565b5060008167ffffffffffffffff8111156101b8576101b7610a8a565b5b6040519080825280602002602001820160405280156101f157816020015b6101de61080b565b8152602001906001900390816101d65790505b5090506000915060005b6000805490508110156103d9573373ffffffffffffffffffffffffffffffffffffffff166001600083815260200190815260200160002060009054906101000a900473ffffffffffffffffffffffffffffffffffffffff1673ffffffffffffffffffffffffffffffffffffffff161480156102a657506000818154811061028557610284610c87565b5b906000526020600020906004020160020160009054906101000a900460ff16155b156103c657600081815481106102bf576102be610c87565b5b9060005260206000209060040201604051806080016040529081600082015481526020016001820180546102f290610d5c565b80601f016020809104026020016040519081016040528092919081815260200182805461031e90610d5c565b801561036b5780601f106103405761010080835404028352916020019161036b565b820191906000526020600020905b81548152906001019060200180831161034e57829003601f168201915b505050505081526020016002820160009054906101000a900460ff161515151581526020016003820154815250508284815181106103ac576103ab610c87565b5b602002602001018190525082806103c290610ce5565b9350505b80806103d190610ce5565b9150506101fb565b50809250505090565b6000805490508210610429576040517f08c379a000000000000000000000000000000000000000000000000000000000815260040161042090610dea565b60405180910390fd5b3373ffffffffffffffffffffffffffffffffffffffff166001600084815260200190815260200160002060009054906101000a900473ffffffffffffffffffffffffffffffffffffffff1673ffffffffffffffffffffffffffffffffffffffff16146104ca576040517f08c379a00000000000000000000000000000000000000000000000000000000081526004016104c190610e7c565b60405180910390fd5b80600083815481106104df576104de610c87565b5b906000526020600020906004020160010190816104fc9190611048565b50426000838154811061051257610511610c87565b5b906000526020600020906004020160030181905550817f6b2dac41d909317b16f7d665e43af1ab54c018d84ae9288e23020c4c4ad8437f8242604051610559929190611162565b60405180910390a25050565b60008054905081106105ac576040517f08c379a00000000000000000000000000000000000000000000000000000000081526004016105a390610dea565b60405180910390fd5b3373ffffffffffffffffffffffffffffffffffffffff166001600083815260200190815260200160002060009054906101000a900473ffffffffffffffffffffffffffffffffffffffff1673ffffffffffffffffffffffffffffffffffffffff161461064d576040517f08c379a000000000000000000000000000000000000000000000000000000000815260040161064490610e7c565b60405180910390fd5b60016000828154811061066357610662610c87565b5b906000526020600020906004020160020160006101000a81548160ff021916908315150217905550807ff88a35c3d2016c409a46570b994a17b408dbc83c14a03f521512d50b85386d0660016040516106bc91906111a1565b60405180910390a250565b6000808054905090506000429050600060405180608001604052808481526020018581526020016000151581526020018381525090806001815401808255809150506001900390600052602060002090600402016000909190919091506000820151816000015560208201518160010190816107439190611048565b5060408201518160020160006101000a81548160ff021916908315150217905550606082015181600301555050336001600084815260200190815260200160002060006101000a81548173ffffffffffffffffffffffffffffffffffffffff021916908373ffffffffffffffffffffffffffffffffffffffff160217905550813373ffffffffffffffffffffffffffffffffffffffff167f1f54e1ba1832d428fbd7e7792beaf62b1fc5a382c207ffd614209c1413e94fda60405160405180910390a3505050565b60405180608001604052806000815260200160608152602001600015158152602001600081525090565b600081519050919050565b600082825260208201905092915050565b6000819050602082019050919050565b6000819050919050565b61087481610861565b82525050565b600081519050919050565b600082825260208201905092915050565b60005b838110156108b4578082015181840152602081019050610899565b60008484015250505050565b6000601f19601f8301169050919050565b60006108dc8261087a565b6108e68185610885565b93506108f6818560208601610896565b6108ff816108c0565b840191505092915050565b60008115159050919050565b61091f8161090a565b82525050565b600060808301600083015161093d600086018261086b565b506020830151848203602086015261095582826108d1565b915050604083015161096a6040860182610916565b50606083015161097d606086018261086b565b508091505092915050565b60006109948383610925565b905092915050565b6000602082019050919050565b60006109b482610835565b6109be8185610840565b9350836020820285016109d085610851565b8060005b85811015610a0c57848403895281516109ed8582610988565b94506109f88361099c565b925060208a019950506001810190506109d4565b50829750879550505050505092915050565b60006020820190508181036000830152610a3881846109a9565b905092915050565b6000604051905090565b600080fd5b600080fd5b610a5d81610861565b8114610a6857600080fd5b50565b600081359050610a7a81610a54565b92915050565b600080fd5b600080fd5b7f4e487b7100000000000000000000000000000000000000000000000000000000600052604160045260246000fd5b610ac2826108c0565b810181811067ffffffffffffffff82111715610ae157610ae0610a8a565b5b80604052505050565b6000610af4610a40565b9050610b008282610ab9565b919050565b600067ffffffffffffffff821115610b2057610b1f610a8a565b5b610b29826108c0565b9050602081019050919050565b82818337600083830152505050565b6000610b58610b5384610b05565b610aea565b905082815260208101848484011115610b7457610b73610a85565b5b610b7f848285610b36565b509392505050565b600082601f830112610b9c57610b9b610a80565b5b8135610bac848260208601610b45565b91505092915050565b60008060408385031215610bcc57610bcb610a4a565b5b6000610bda85828601610a6b565b925050602083013567ffffffffffffffff811115610bfb57610bfa610a4f565b5b610c0785828601610b87565b9150509250929050565b600060208284031215610c2757610c26610a4a565b5b6000610c3584828501610a6b565b91505092915050565b600060208284031215610c5457610c53610a4a565b5b600082013567ffffffffffffffff811115610c7257610c71610a4f565b5b610c7e84828501610b87565b91505092915050565b7f4e487b7100000000000000000000000000000000000000000000000000000000600052603260045260246000fd5b7f4e487b7100000000000000000000000000000000000000000000000000000000600052601160045260246000fd5b6000610cf082610861565b91507fffffffffffffffffffffffffffffffffffffffffffffffffffffffffffffffff8203610d2257610d21610cb6565b5b600182019050919050565b7f4e487b7100000000000000000000000000000000000000000000000000000000600052602260045260246000fd5b60006002820490506001821680610d7457607f821691505b602082108103610d8757610d86610d2d565b5b50919050565b600082825260208201905092915050565b7f5461736b20646f6573206e6f7420657869737400000000000000000000000000600082015250565b6000610dd4601383610d8d565b9150610ddf82610d9e565b602082019050919050565b60006020820190508181036000830152610e0381610dc7565b9050919050565b7f596f7520617265206e6f7420746865206f776e6572206f66207468697320746160008201527f736b000000000000000000000000000000000000000000000000000000000000602082015250565b6000610e66602283610d8d565b9150610e7182610e0a565b604082019050919050565b60006020820190508181036000830152610e9581610e59565b9050919050565b60008190508160005260206000209050919050565b60006020601f8301049050919050565b600082821b905092915050565b600060088302610efe7fffffffffffffffffffffffffffffffffffffffffffffffffffffffffffffffff82610ec1565b610f088683610ec1565b95508019841693508086168417925050509392505050565b6000819050919050565b6000610f45610f40610f3b84610861565b610f20565b610861565b9050919050565b6000819050919050565b610f5f83610f2a565b610f73610f6b82610f4c565b848454610ece565b825550505050565b600090565b610f88610f7b565b610f93818484610f56565b505050565b5b81811015610fb757610fac600082610f80565b600181019050610f99565b5050565b601f821115610ffc57610fcd81610e9c565b610fd684610eb1565b81016020851015610fe5578190505b610ff9610ff185610eb1565b830182610f98565b50505b505050565b600082821c905092915050565b600061101f60001984600802611001565b1980831691505092915050565b6000611038838361100e565b9150826002028217905092915050565b6110518261087a565b67ffffffffffffffff81111561106a57611069610a8a565b5b6110748254610d5c565b61107f828285610fbb565b600060209050601f8311600181146110b257600084156110a0578287015190505b6110aa858261102c565b865550611112565b601f1984166110c086610e9c565b60005b828110156110e8578489015182556001820191506020850194506020810190506110c3565b868310156111055784890151611101601f89168261100e565b8355505b6001600288020188555050505b505050505050565b60006111258261087a565b61112f8185610d8d565b935061113f818560208601610896565b611148816108c0565b840191505092915050565b61115c81610861565b82525050565b6000604082019050818103600083015261117c818561111a565b905061118b6020830184611153565b9392505050565b61119b8161090a565b82525050565b60006020820190506111b66000830184611192565b9291505056fea2646970667358221220de67df758389bc443a59beda1b0e657637bf35b8a161396544eba8bcfc3f45a464736f6c63430008130033",
  "immutableReferences": {},
  "source": "// SPDX-License-Identifier: MIT\r\npragma solidity 0.8.19;\r\n\r\ncontract TaskContract {\r\n    event AddTask(address indexed recipient, uint256 indexed taskId);\r\n    event DeleteTask(uint256 indexed taskId, bool isDeleted);\r\n    event GetTask(uint256 indexed taskId);\r\n    event ChangeTask(uint256 indexed taskId, string newText, uint256 timestamp);\r\n\r\n    struct Task {\r\n        uint256 id;\r\n        string text;\r\n        bool isDeleted;\r\n        uint256 timestamp;\r\n    }\r\n\r\n    Task[] private tasks;\r\n    mapping(uint256 => address) taskToOwner;\r\n\r\n    function addTask(string memory text) external {\r\n        uint256 taskId = tasks.length;\r\n        uint256 timestamp = block.timestamp;\r\n        tasks.push(Task(taskId, text, false, timestamp));\r\n        taskToOwner[taskId] = msg.sender;\r\n        emit AddTask(msg.sender, taskId);\r\n    }\r\n\r\n    function getTasks() external view returns (Task[] memory) {\r\n        uint256 counter = 0;\r\n        for (uint256 i = 0; i < tasks.length; i++) {\r\n            if (taskToOwner[i] == msg.sender && !tasks[i].isDeleted) {\r\n                counter++;\r\n            }\r\n        }\r\n        Task[] memory result = new Task[](counter);\r\n        counter = 0;\r\n        for (uint256 i = 0; i < tasks.length; i++) {\r\n            if (taskToOwner[i] == msg.sender && !tasks[i].isDeleted) {\r\n                result[counter] = tasks[i];\r\n                counter++;\r\n            }\r\n        }\r\n        return result;\r\n    }\r\n\r\n    function deleteTask(uint256 taskId) external {\r\n        require(taskId < tasks.length, \"Task does not exist\");\r\n        require(\r\n            taskToOwner[taskId] == msg.sender,\r\n            \"You are not the owner of this task\"\r\n        );\r\n        tasks[taskId].isDeleted = true;\r\n        emit DeleteTask(taskId, true);\r\n    }\r\n\r\n    function changeTask(uint256 taskId, string memory newText) external {\r\n        require(taskId < tasks.length, \"Task does not exist\");\r\n        require(\r\n            taskToOwner[taskId] == msg.sender,\r\n            \"You are not the owner of this task\"\r\n        );\r\n\r\n        tasks[taskId].text = newText;\r\n        tasks[taskId].timestamp = block.timestamp;\r\n\r\n        emit ChangeTask(taskId, newText, block.timestamp);\r\n    }\r\n}\r\n",
  "sourcePath": "C:\\Users\\alexa\\Documents\\GitHub\\ToDoChain\\smart_contract\\contracts\\TaskContract.sol",
  "compiler": {
    "name": "solc",
    "version": "0.8.19+commit.7dd6d404.Emscripten.clang"
  },
  "schemaVersion": "3.4.16",
  "updatedAt": "2024-04-09T20:12:39.660Z",
  "networkType": "ethereum",
  "devdoc": {
    "kind": "dev",
    "methods": {},
    "version": 1
  },
  "userdoc": {
    "kind": "user",
    "methods": {},
    "version": 1
  }
}